{
  "contracts/Project.sol": {
    "Project": {
      "abi": [
        {
          "anonymous": false,
          "inputs": [
            {
              "indexed": true,
              "internalType": "address",
              "name": "donor",
              "type": "address"
            },
            {
              "indexed": false,
              "internalType": "uint256",
              "name": "amount",
              "type": "uint256"
            }
          ],
          "name": "DonationReceived",
          "type": "event"
        },
        {
          "anonymous": false,
          "inputs": [
            {
              "indexed": true,
              "internalType": "address",
              "name": "donor",
              "type": "address"
            },
            {
              "indexed": false,
              "internalType": "uint256",
              "name": "amount",
              "type": "uint256"
            }
          ],
          "name": "FundsRefunded",
          "type": "event"
        },
        {
          "anonymous": false,
          "inputs": [
            {
              "indexed": true,
              "internalType": "address",
              "name": "creator",
              "type": "address"
            },
            {
              "indexed": false,
              "internalType": "uint256",
              "name": "amount",
              "type": "uint256"
            }
          ],
          "name": "FundsWithdrawn",
          "type": "event"
        },
        {
          "anonymous": false,
          "inputs": [
            {
              "indexed": false,
              "internalType": "enum Project.ProjectState",
              "name": "newState",
              "type": "uint8"
            }
          ],
          "name": "ProjectStateChanged",
          "type": "event"
        },
        {
          "inputs": [],
          "name": "campaignName",
          "outputs": [
            {
              "internalType": "string",
              "name": "",
              "type": "string"
            }
          ],
          "stateMutability": "view",
          "type": "function"
        },
        {
          "inputs": [],
          "name": "creator",
          "outputs": [
            {
              "internalType": "address",
              "name": "",
              "type": "address"
            }
          ],
          "stateMutability": "view",
          "type": "function"
        },
        {
          "inputs": [],
          "name": "currentAmount",
          "outputs": [
            {
              "internalType": "uint256",
              "name": "",
              "type": "uint256"
            }
          ],
          "stateMutability": "view",
          "type": "function"
        },
        {
          "inputs": [],
          "name": "deadline",
          "outputs": [
            {
              "internalType": "uint256",
              "name": "",
              "type": "uint256"
            }
          ],
          "stateMutability": "view",
          "type": "function"
        },
        {
          "inputs": [],
          "name": "description",
          "outputs": [
            {
              "internalType": "string",
              "name": "",
              "type": "string"
            }
          ],
          "stateMutability": "view",
          "type": "function"
        },
        {
          "inputs": [],
          "name": "donate",
          "outputs": [],
          "stateMutability": "payable",
          "type": "function"
        },
        {
          "inputs": [
            {
              "internalType": "address",
              "name": "",
              "type": "address"
            }
          ],
          "name": "donations",
          "outputs": [
            {
              "internalType": "bool",
              "name": "refunded",
              "type": "bool"
            },
            {
              "internalType": "uint256",
              "name": "amount",
              "type": "uint256"
            }
          ],
          "stateMutability": "view",
          "type": "function"
        },
        {
          "inputs": [],
          "name": "goalAmount",
          "outputs": [
            {
              "internalType": "uint256",
              "name": "",
              "type": "uint256"
            }
          ],
          "stateMutability": "view",
          "type": "function"
        },
        {
          "inputs": [
            {
              "internalType": "address",
              "name": "_creator",
              "type": "address"
            },
            {
              "internalType": "string",
              "name": "_campaignName",
              "type": "string"
            },
            {
              "internalType": "uint256",
              "name": "_goalAmount",
              "type": "uint256"
            },
            {
              "internalType": "uint256",
              "name": "_deadline",
              "type": "uint256"
            },
            {
              "internalType": "string",
              "name": "_description",
              "type": "string"
            }
          ],
          "name": "initialize",
          "outputs": [],
          "stateMutability": "nonpayable",
          "type": "function"
        },
        {
          "inputs": [],
          "name": "refund",
          "outputs": [],
          "stateMutability": "nonpayable",
          "type": "function"
        },
        {
          "inputs": [],
          "name": "state",
          "outputs": [
            {
              "internalType": "enum Project.ProjectState",
              "name": "",
              "type": "uint8"
            }
          ],
          "stateMutability": "view",
          "type": "function"
        },
        {
          "inputs": [],
          "name": "updateProjectState",
          "outputs": [],
          "stateMutability": "nonpayable",
          "type": "function"
        },
        {
          "inputs": [],
          "name": "withdrawFunds",
          "outputs": [],
          "stateMutability": "nonpayable",
          "type": "function"
        }
      ],
      "evm": {
        "bytecode": {
          "linkReferences": {},
          "object": "608060405234801561001057600080fd5b50611571806100206000396000f3fe6080604052600436106100c25760003560e01c80633deb33e71161007f578063c19d93fb11610059578063c19d93fb1461020c578063cc6cb19a14610237578063ed88c68e14610275578063f441b1c81461027f576100c2565b80633deb33e7146101b3578063590e1ae3146101ca5780637284e416146101e1576100c2565b806302d05d3f146100c757806306322998146100f25780630724fda91461011b57806324600fc3146101465780632636b9451461015d57806329dcb0cf14610188575b600080fd5b3480156100d357600080fd5b506100dc6102aa565b6040516100e99190610b3a565b60405180910390f35b3480156100fe57600080fd5b5061011960048036038101906101149190610d11565b6102d0565b005b34801561012757600080fd5b50610130610378565b60405161013d9190610e43565b60405180910390f35b34801561015257600080fd5b5061015b610406565b005b34801561016957600080fd5b506101726105fd565b60405161017f9190610e74565b60405180910390f35b34801561019457600080fd5b5061019d610603565b6040516101aa9190610e74565b60405180910390f35b3480156101bf57600080fd5b506101c8610609565b005b3480156101d657600080fd5b506101df6106f8565b005b3480156101ed57600080fd5b506101f6610906565b6040516102039190610e43565b60405180910390f35b34801561021857600080fd5b50610221610994565b60405161022e9190610f06565b60405180910390f35b34801561024357600080fd5b5061025e60048036038101906102599190610f21565b6109a5565b60405161026c929190610f69565b60405180910390f35b61027d6109d6565b005b34801561028b57600080fd5b50610294610af3565b6040516102a19190610e74565b60405180910390f35b600260009054906101000a900473ffffffffffffffffffffffffffffffffffffffff1681565b84600260006101000a81548173ffffffffffffffffffffffffffffffffffffffff021916908373ffffffffffffffffffffffffffffffffffffffff1602179055508360019081610320919061119e565b508260048190555081600581905550806003908161033e919061119e565b50600060068190555060008060006101000a81548160ff0219169083600281111561036c5761036b610e8f565b5b02179055505050505050565b6001805461038590610fc1565b80601f01602080910402602001604051908101604052809291908181526020018280546103b190610fc1565b80156103fe5780601f106103d3576101008083540402835291602001916103fe565b820191906000526020600020905b8154815290600101906020018083116103e157829003601f168201915b505050505081565b600260009054906101000a900473ffffffffffffffffffffffffffffffffffffffff1673ffffffffffffffffffffffffffffffffffffffff163373ffffffffffffffffffffffffffffffffffffffff1614610496576040517f08c379a000000000000000000000000000000000000000000000000000000000815260040161048d906112bc565b60405180910390fd5b60055442116104da576040517f08c379a00000000000000000000000000000000000000000000000000000000081526004016104d190611328565b60405180910390fd5b600160028111156104ee576104ed610e8f565b5b60008054906101000a900460ff16600281111561050e5761050d610e8f565b5b1461051857600080fd5b6000600260009054906101000a900473ffffffffffffffffffffffffffffffffffffffff1690508073ffffffffffffffffffffffffffffffffffffffff166108fc6006549081150290604051600060405180830381858888f19350505050158015610587573d6000803e3d6000fd5b50600260009054906101000a900473ffffffffffffffffffffffffffffffffffffffff1673ffffffffffffffffffffffffffffffffffffffff167feaff4b37086828766ad3268786972c0cd24259d4c87a80f9d3963a3c3d999b0d6006546040516105f29190610e74565b60405180910390a250565b60045481565b60055481565b600554421161064d576040517f08c379a000000000000000000000000000000000000000000000000000000000815260040161064490611328565b60405180910390fd5b600454600654106106875760016000806101000a81548160ff0219169083600281111561067d5761067c610e8f565b5b02179055506106b2565b60026000806101000a81548160ff021916908360028111156106ac576106ab610e8f565b5b02179055505b7f35bb0cd5f89def7829cadbfe305076fca9a4811f847e3ce1cd4e017651dda4d460008054906101000a900460ff166040516106ee9190610f06565b60405180910390a1565b600554421161073c576040517f08c379a000000000000000000000000000000000000000000000000000000000815260040161073390611328565b60405180910390fd5b60028081111561074f5761074e610e8f565b5b60008054906101000a900460ff16600281111561076f5761076e610e8f565b5b146107af576040517f08c379a00000000000000000000000000000000000000000000000000000000081526004016107a6906113ba565b60405180910390fd5b6000600760003373ffffffffffffffffffffffffffffffffffffffff1673ffffffffffffffffffffffffffffffffffffffff16815260200190815260200160002090506000816001015411610839576040517f08c379a00000000000000000000000000000000000000000000000000000000081526004016108309061144c565b60405180910390fd5b8060000160009054906101000a900460ff161561088b576040517f08c379a0000000000000000000000000000000000000000000000000000000008152600401610882906114b8565b60405180910390fd5b6000816001015490506000826001018190555060018260000160006101000a81548160ff0219169083151502179055503373ffffffffffffffffffffffffffffffffffffffff166108fc829081150290604051600060405180830381858888f19350505050158015610901573d6000803e3d6000fd5b505050565b6003805461091390610fc1565b80601f016020809104026020016040519081016040528092919081815260200182805461093f90610fc1565b801561098c5780601f106109615761010080835404028352916020019161098c565b820191906000526020600020905b81548152906001019060200180831161096f57829003601f168201915b505050505081565b60008054906101000a900460ff1681565b60076020528060005260406000206000915090508060000160009054906101000a900460ff16908060010154905082565b34600660008282546109e89190611507565b9250508190555034600760003373ffffffffffffffffffffffffffffffffffffffff1673ffffffffffffffffffffffffffffffffffffffff1681526020019081526020016000206001016000828254610a419190611507565b925050819055506000600760003373ffffffffffffffffffffffffffffffffffffffff1673ffffffffffffffffffffffffffffffffffffffff16815260200190815260200160002060000160006101000a81548160ff0219169083151502179055503373ffffffffffffffffffffffffffffffffffffffff167f264f630d9efa0d07053a31163641d9fcc0adafc9d9e76f1c37c2ce3a558d2c5234604051610ae99190610e74565b60405180910390a2565b60065481565b600073ffffffffffffffffffffffffffffffffffffffff82169050919050565b6000610b2482610af9565b9050919050565b610b3481610b19565b82525050565b6000602082019050610b4f6000830184610b2b565b92915050565b6000604051905090565b600080fd5b600080fd5b610b7281610b19565b8114610b7d57600080fd5b50565b600081359050610b8f81610b69565b92915050565b600080fd5b600080fd5b6000601f19601f8301169050919050565b7f4e487b7100000000000000000000000000000000000000000000000000000000600052604160045260246000fd5b610be882610b9f565b810181811067ffffffffffffffff82111715610c0757610c06610bb0565b5b80604052505050565b6000610c1a610b55565b9050610c268282610bdf565b919050565b600067ffffffffffffffff821115610c4657610c45610bb0565b5b610c4f82610b9f565b9050602081019050919050565b82818337600083830152505050565b6000610c7e610c7984610c2b565b610c10565b905082815260208101848484011115610c9a57610c99610b9a565b5b610ca5848285610c5c565b509392505050565b600082601f830112610cc257610cc1610b95565b5b8135610cd2848260208601610c6b565b91505092915050565b6000819050919050565b610cee81610cdb565b8114610cf957600080fd5b50565b600081359050610d0b81610ce5565b92915050565b600080600080600060a08688031215610d2d57610d2c610b5f565b5b6000610d3b88828901610b80565b955050602086013567ffffffffffffffff811115610d5c57610d5b610b64565b5b610d6888828901610cad565b9450506040610d7988828901610cfc565b9350506060610d8a88828901610cfc565b925050608086013567ffffffffffffffff811115610dab57610daa610b64565b5b610db788828901610cad565b9150509295509295909350565b600081519050919050565b600082825260208201905092915050565b60005b83811015610dfe578082015181840152602081019050610de3565b60008484015250505050565b6000610e1582610dc4565b610e1f8185610dcf565b9350610e2f818560208601610de0565b610e3881610b9f565b840191505092915050565b60006020820190508181036000830152610e5d8184610e0a565b905092915050565b610e6e81610cdb565b82525050565b6000602082019050610e896000830184610e65565b92915050565b7f4e487b7100000000000000000000000000000000000000000000000000000000600052602160045260246000fd5b60038110610ecf57610ece610e8f565b5b50565b6000819050610ee082610ebe565b919050565b6000610ef082610ed2565b9050919050565b610f0081610ee5565b82525050565b6000602082019050610f1b6000830184610ef7565b92915050565b600060208284031215610f3757610f36610b5f565b5b6000610f4584828501610b80565b91505092915050565b60008115159050919050565b610f6381610f4e565b82525050565b6000604082019050610f7e6000830185610f5a565b610f8b6020830184610e65565b9392505050565b7f4e487b7100000000000000000000000000000000000000000000000000000000600052602260045260246000fd5b60006002820490506001821680610fd957607f821691505b602082108103610fec57610feb610f92565b5b50919050565b60008190508160005260206000209050919050565b60006020601f8301049050919050565b600082821b905092915050565b6000600883026110547fffffffffffffffffffffffffffffffffffffffffffffffffffffffffffffffff82611017565b61105e8683611017565b95508019841693508086168417925050509392505050565b6000819050919050565b600061109b61109661109184610cdb565b611076565b610cdb565b9050919050565b6000819050919050565b6110b583611080565b6110c96110c1826110a2565b848454611024565b825550505050565b600090565b6110de6110d1565b6110e98184846110ac565b505050565b5b8181101561110d576111026000826110d6565b6001810190506110ef565b5050565b601f8211156111525761112381610ff2565b61112c84611007565b8101602085101561113b578190505b61114f61114785611007565b8301826110ee565b50505b505050565b600082821c905092915050565b600061117560001984600802611157565b1980831691505092915050565b600061118e8383611164565b9150826002028217905092915050565b6111a782610dc4565b67ffffffffffffffff8111156111c0576111bf610bb0565b5b6111ca8254610fc1565b6111d5828285611111565b600060209050601f83116001811461120857600084156111f6578287015190505b6112008582611182565b865550611268565b601f19841661121686610ff2565b60005b8281101561123e57848901518255600182019150602085019450602081019050611219565b8683101561125b5784890151611257601f891682611164565b8355505b6001600288020188555050505b505050505050565b7f4e6f742063726561746f72000000000000000000000000000000000000000000600082015250565b60006112a6600b83610dcf565b91506112b182611270565b602082019050919050565b600060208201905081810360008301526112d581611299565b9050919050565b7f486176656e277420726561636865642074686520646561646c696e6500000000600082015250565b6000611312601c83610dcf565b915061131d826112dc565b602082019050919050565b6000602082019050818103600083015261134181611305565b9050919050565b7f43616e6e6f7420726566756e6420756e6c6573732070726f6a6563742066616960008201527f6c65640000000000000000000000000000000000000000000000000000000000602082015250565b60006113a4602383610dcf565b91506113af82611348565b604082019050919050565b600060208201905081810360008301526113d381611397565b9050919050565b7f4e6f20646f6e6174696f6e7320666f756e6420666f72207468652073656e646560008201527f7200000000000000000000000000000000000000000000000000000000000000602082015250565b6000611436602183610dcf565b9150611441826113da565b604082019050919050565b6000602082019050818103600083015261146581611429565b9050919050565b7f446f6e6174696f6e20616c726561647920726566756e64656400000000000000600082015250565b60006114a2601983610dcf565b91506114ad8261146c565b602082019050919050565b600060208201905081810360008301526114d181611495565b9050919050565b7f4e487b7100000000000000000000000000000000000000000000000000000000600052601160045260246000fd5b600061151282610cdb565b915061151d83610cdb565b9250828201905080821115611535576115346114d8565b5b9291505056fea26469706673582212200462c2f73c83f666c121f7720910112142e73122232e0419561b6c41782e43d564736f6c63430008180033",
          "opcodes": "PUSH1 0x80 PUSH1 0x40 MSTORE CALLVALUE DUP1 ISZERO PUSH2 0x10 JUMPI PUSH1 0x0 DUP1 REVERT JUMPDEST POP PUSH2 0x1571 DUP1 PUSH2 0x20 PUSH1 0x0 CODECOPY PUSH1 0x0 RETURN INVALID PUSH1 0x80 PUSH1 0x40 MSTORE PUSH1 0x4 CALLDATASIZE LT PUSH2 0xC2 JUMPI PUSH1 0x0 CALLDATALOAD PUSH1 0xE0 SHR DUP1 PUSH4 0x3DEB33E7 GT PUSH2 0x7F JUMPI DUP1 PUSH4 0xC19D93FB GT PUSH2 0x59 JUMPI DUP1 PUSH4 0xC19D93FB EQ PUSH2 0x20C JUMPI DUP1 PUSH4 0xCC6CB19A EQ PUSH2 0x237 JUMPI DUP1 PUSH4 0xED88C68E EQ PUSH2 0x275 JUMPI DUP1 PUSH4 0xF441B1C8 EQ PUSH2 0x27F JUMPI PUSH2 0xC2 JUMP JUMPDEST DUP1 PUSH4 0x3DEB33E7 EQ PUSH2 0x1B3 JUMPI DUP1 PUSH4 0x590E1AE3 EQ PUSH2 0x1CA JUMPI DUP1 PUSH4 0x7284E416 EQ PUSH2 0x1E1 JUMPI PUSH2 0xC2 JUMP JUMPDEST DUP1 PUSH4 0x2D05D3F EQ PUSH2 0xC7 JUMPI DUP1 PUSH4 0x6322998 EQ PUSH2 0xF2 JUMPI DUP1 PUSH4 0x724FDA9 EQ PUSH2 0x11B JUMPI DUP1 PUSH4 0x24600FC3 EQ PUSH2 0x146 JUMPI DUP1 PUSH4 0x2636B945 EQ PUSH2 0x15D JUMPI DUP1 PUSH4 0x29DCB0CF EQ PUSH2 0x188 JUMPI JUMPDEST PUSH1 0x0 DUP1 REVERT JUMPDEST CALLVALUE DUP1 ISZERO PUSH2 0xD3 JUMPI PUSH1 0x0 DUP1 REVERT JUMPDEST POP PUSH2 0xDC PUSH2 0x2AA JUMP JUMPDEST PUSH1 0x40 MLOAD PUSH2 0xE9 SWAP2 SWAP1 PUSH2 0xB3A JUMP JUMPDEST PUSH1 0x40 MLOAD DUP1 SWAP2 SUB SWAP1 RETURN JUMPDEST CALLVALUE DUP1 ISZERO PUSH2 0xFE JUMPI PUSH1 0x0 DUP1 REVERT JUMPDEST POP PUSH2 0x119 PUSH1 0x4 DUP1 CALLDATASIZE SUB DUP2 ADD SWAP1 PUSH2 0x114 SWAP2 SWAP1 PUSH2 0xD11 JUMP JUMPDEST PUSH2 0x2D0 JUMP JUMPDEST STOP JUMPDEST CALLVALUE DUP1 ISZERO PUSH2 0x127 JUMPI PUSH1 0x0 DUP1 REVERT JUMPDEST POP PUSH2 0x130 PUSH2 0x378 JUMP JUMPDEST PUSH1 0x40 MLOAD PUSH2 0x13D SWAP2 SWAP1 PUSH2 0xE43 JUMP JUMPDEST PUSH1 0x40 MLOAD DUP1 SWAP2 SUB SWAP1 RETURN JUMPDEST CALLVALUE DUP1 ISZERO PUSH2 0x152 JUMPI PUSH1 0x0 DUP1 REVERT JUMPDEST POP PUSH2 0x15B PUSH2 0x406 JUMP JUMPDEST STOP JUMPDEST CALLVALUE DUP1 ISZERO PUSH2 0x169 JUMPI PUSH1 0x0 DUP1 REVERT JUMPDEST POP PUSH2 0x172 PUSH2 0x5FD JUMP JUMPDEST PUSH1 0x40 MLOAD PUSH2 0x17F SWAP2 SWAP1 PUSH2 0xE74 JUMP JUMPDEST PUSH1 0x40 MLOAD DUP1 SWAP2 SUB SWAP1 RETURN JUMPDEST CALLVALUE DUP1 ISZERO PUSH2 0x194 JUMPI PUSH1 0x0 DUP1 REVERT JUMPDEST POP PUSH2 0x19D PUSH2 0x603 JUMP JUMPDEST PUSH1 0x40 MLOAD PUSH2 0x1AA SWAP2 SWAP1 PUSH2 0xE74 JUMP JUMPDEST PUSH1 0x40 MLOAD DUP1 SWAP2 SUB SWAP1 RETURN JUMPDEST CALLVALUE DUP1 ISZERO PUSH2 0x1BF JUMPI PUSH1 0x0 DUP1 REVERT JUMPDEST POP PUSH2 0x1C8 PUSH2 0x609 JUMP JUMPDEST STOP JUMPDEST CALLVALUE DUP1 ISZERO PUSH2 0x1D6 JUMPI PUSH1 0x0 DUP1 REVERT JUMPDEST POP PUSH2 0x1DF PUSH2 0x6F8 JUMP JUMPDEST STOP JUMPDEST CALLVALUE DUP1 ISZERO PUSH2 0x1ED JUMPI PUSH1 0x0 DUP1 REVERT JUMPDEST POP PUSH2 0x1F6 PUSH2 0x906 JUMP JUMPDEST PUSH1 0x40 MLOAD PUSH2 0x203 SWAP2 SWAP1 PUSH2 0xE43 JUMP JUMPDEST PUSH1 0x40 MLOAD DUP1 SWAP2 SUB SWAP1 RETURN JUMPDEST CALLVALUE DUP1 ISZERO PUSH2 0x218 JUMPI PUSH1 0x0 DUP1 REVERT JUMPDEST POP PUSH2 0x221 PUSH2 0x994 JUMP JUMPDEST PUSH1 0x40 MLOAD PUSH2 0x22E SWAP2 SWAP1 PUSH2 0xF06 JUMP JUMPDEST PUSH1 0x40 MLOAD DUP1 SWAP2 SUB SWAP1 RETURN JUMPDEST CALLVALUE DUP1 ISZERO PUSH2 0x243 JUMPI PUSH1 0x0 DUP1 REVERT JUMPDEST POP PUSH2 0x25E PUSH1 0x4 DUP1 CALLDATASIZE SUB DUP2 ADD SWAP1 PUSH2 0x259 SWAP2 SWAP1 PUSH2 0xF21 JUMP JUMPDEST PUSH2 0x9A5 JUMP JUMPDEST PUSH1 0x40 MLOAD PUSH2 0x26C SWAP3 SWAP2 SWAP1 PUSH2 0xF69 JUMP JUMPDEST PUSH1 0x40 MLOAD DUP1 SWAP2 SUB SWAP1 RETURN JUMPDEST PUSH2 0x27D PUSH2 0x9D6 JUMP JUMPDEST STOP JUMPDEST CALLVALUE DUP1 ISZERO PUSH2 0x28B JUMPI PUSH1 0x0 DUP1 REVERT JUMPDEST POP PUSH2 0x294 PUSH2 0xAF3 JUMP JUMPDEST PUSH1 0x40 MLOAD PUSH2 0x2A1 SWAP2 SWAP1 PUSH2 0xE74 JUMP JUMPDEST PUSH1 0x40 MLOAD DUP1 SWAP2 SUB SWAP1 RETURN JUMPDEST PUSH1 0x2 PUSH1 0x0 SWAP1 SLOAD SWAP1 PUSH2 0x100 EXP SWAP1 DIV PUSH20 0xFFFFFFFFFFFFFFFFFFFFFFFFFFFFFFFFFFFFFFFF AND DUP2 JUMP JUMPDEST DUP5 PUSH1 0x2 PUSH1 0x0 PUSH2 0x100 EXP DUP2 SLOAD DUP2 PUSH20 0xFFFFFFFFFFFFFFFFFFFFFFFFFFFFFFFFFFFFFFFF MUL NOT AND SWAP1 DUP4 PUSH20 0xFFFFFFFFFFFFFFFFFFFFFFFFFFFFFFFFFFFFFFFF AND MUL OR SWAP1 SSTORE POP DUP4 PUSH1 0x1 SWAP1 DUP2 PUSH2 0x320 SWAP2 SWAP1 PUSH2 0x119E JUMP JUMPDEST POP DUP3 PUSH1 0x4 DUP2 SWAP1 SSTORE POP DUP2 PUSH1 0x5 DUP2 SWAP1 SSTORE POP DUP1 PUSH1 0x3 SWAP1 DUP2 PUSH2 0x33E SWAP2 SWAP1 PUSH2 0x119E JUMP JUMPDEST POP PUSH1 0x0 PUSH1 0x6 DUP2 SWAP1 SSTORE POP PUSH1 0x0 DUP1 PUSH1 0x0 PUSH2 0x100 EXP DUP2 SLOAD DUP2 PUSH1 0xFF MUL NOT AND SWAP1 DUP4 PUSH1 0x2 DUP2 GT ISZERO PUSH2 0x36C JUMPI PUSH2 0x36B PUSH2 0xE8F JUMP JUMPDEST JUMPDEST MUL OR SWAP1 SSTORE POP POP POP POP POP POP JUMP JUMPDEST PUSH1 0x1 DUP1 SLOAD PUSH2 0x385 SWAP1 PUSH2 0xFC1 JUMP JUMPDEST DUP1 PUSH1 0x1F ADD PUSH1 0x20 DUP1 SWAP2 DIV MUL PUSH1 0x20 ADD PUSH1 0x40 MLOAD SWAP1 DUP2 ADD PUSH1 0x40 MSTORE DUP1 SWAP3 SWAP2 SWAP1 DUP2 DUP2 MSTORE PUSH1 0x20 ADD DUP3 DUP1 SLOAD PUSH2 0x3B1 SWAP1 PUSH2 0xFC1 JUMP JUMPDEST DUP1 ISZERO PUSH2 0x3FE JUMPI DUP1 PUSH1 0x1F LT PUSH2 0x3D3 JUMPI PUSH2 0x100 DUP1 DUP4 SLOAD DIV MUL DUP4 MSTORE SWAP2 PUSH1 0x20 ADD SWAP2 PUSH2 0x3FE JUMP JUMPDEST DUP3 ADD SWAP2 SWAP1 PUSH1 0x0 MSTORE PUSH1 0x20 PUSH1 0x0 KECCAK256 SWAP1 JUMPDEST DUP2 SLOAD DUP2 MSTORE SWAP1 PUSH1 0x1 ADD SWAP1 PUSH1 0x20 ADD DUP1 DUP4 GT PUSH2 0x3E1 JUMPI DUP3 SWAP1 SUB PUSH1 0x1F AND DUP3 ADD SWAP2 JUMPDEST POP POP POP POP POP DUP2 JUMP JUMPDEST PUSH1 0x2 PUSH1 0x0 SWAP1 SLOAD SWAP1 PUSH2 0x100 EXP SWAP1 DIV PUSH20 0xFFFFFFFFFFFFFFFFFFFFFFFFFFFFFFFFFFFFFFFF AND PUSH20 0xFFFFFFFFFFFFFFFFFFFFFFFFFFFFFFFFFFFFFFFF AND CALLER PUSH20 0xFFFFFFFFFFFFFFFFFFFFFFFFFFFFFFFFFFFFFFFF AND EQ PUSH2 0x496 JUMPI PUSH1 0x40 MLOAD PUSH32 0x8C379A000000000000000000000000000000000000000000000000000000000 DUP2 MSTORE PUSH1 0x4 ADD PUSH2 0x48D SWAP1 PUSH2 0x12BC JUMP JUMPDEST PUSH1 0x40 MLOAD DUP1 SWAP2 SUB SWAP1 REVERT JUMPDEST PUSH1 0x5 SLOAD TIMESTAMP GT PUSH2 0x4DA JUMPI PUSH1 0x40 MLOAD PUSH32 0x8C379A000000000000000000000000000000000000000000000000000000000 DUP2 MSTORE PUSH1 0x4 ADD PUSH2 0x4D1 SWAP1 PUSH2 0x1328 JUMP JUMPDEST PUSH1 0x40 MLOAD DUP1 SWAP2 SUB SWAP1 REVERT JUMPDEST PUSH1 0x1 PUSH1 0x2 DUP2 GT ISZERO PUSH2 0x4EE JUMPI PUSH2 0x4ED PUSH2 0xE8F JUMP JUMPDEST JUMPDEST PUSH1 0x0 DUP1 SLOAD SWAP1 PUSH2 0x100 EXP SWAP1 DIV PUSH1 0xFF AND PUSH1 0x2 DUP2 GT ISZERO PUSH2 0x50E JUMPI PUSH2 0x50D PUSH2 0xE8F JUMP JUMPDEST JUMPDEST EQ PUSH2 0x518 JUMPI PUSH1 0x0 DUP1 REVERT JUMPDEST PUSH1 0x0 PUSH1 0x2 PUSH1 0x0 SWAP1 SLOAD SWAP1 PUSH2 0x100 EXP SWAP1 DIV PUSH20 0xFFFFFFFFFFFFFFFFFFFFFFFFFFFFFFFFFFFFFFFF AND SWAP1 POP DUP1 PUSH20 0xFFFFFFFFFFFFFFFFFFFFFFFFFFFFFFFFFFFFFFFF AND PUSH2 0x8FC PUSH1 0x6 SLOAD SWAP1 DUP2 ISZERO MUL SWAP1 PUSH1 0x40 MLOAD PUSH1 0x0 PUSH1 0x40 MLOAD DUP1 DUP4 SUB DUP2 DUP6 DUP9 DUP9 CALL SWAP4 POP POP POP POP ISZERO DUP1 ISZERO PUSH2 0x587 JUMPI RETURNDATASIZE PUSH1 0x0 DUP1 RETURNDATACOPY RETURNDATASIZE PUSH1 0x0 REVERT JUMPDEST POP PUSH1 0x2 PUSH1 0x0 SWAP1 SLOAD SWAP1 PUSH2 0x100 EXP SWAP1 DIV PUSH20 0xFFFFFFFFFFFFFFFFFFFFFFFFFFFFFFFFFFFFFFFF AND PUSH20 0xFFFFFFFFFFFFFFFFFFFFFFFFFFFFFFFFFFFFFFFF AND PUSH32 0xEAFF4B37086828766AD3268786972C0CD24259D4C87A80F9D3963A3C3D999B0D PUSH1 0x6 SLOAD PUSH1 0x40 MLOAD PUSH2 0x5F2 SWAP2 SWAP1 PUSH2 0xE74 JUMP JUMPDEST PUSH1 0x40 MLOAD DUP1 SWAP2 SUB SWAP1 LOG2 POP JUMP JUMPDEST PUSH1 0x4 SLOAD DUP2 JUMP JUMPDEST PUSH1 0x5 SLOAD DUP2 JUMP JUMPDEST PUSH1 0x5 SLOAD TIMESTAMP GT PUSH2 0x64D JUMPI PUSH1 0x40 MLOAD PUSH32 0x8C379A000000000000000000000000000000000000000000000000000000000 DUP2 MSTORE PUSH1 0x4 ADD PUSH2 0x644 SWAP1 PUSH2 0x1328 JUMP JUMPDEST PUSH1 0x40 MLOAD DUP1 SWAP2 SUB SWAP1 REVERT JUMPDEST PUSH1 0x4 SLOAD PUSH1 0x6 SLOAD LT PUSH2 0x687 JUMPI PUSH1 0x1 PUSH1 0x0 DUP1 PUSH2 0x100 EXP DUP2 SLOAD DUP2 PUSH1 0xFF MUL NOT AND SWAP1 DUP4 PUSH1 0x2 DUP2 GT ISZERO PUSH2 0x67D JUMPI PUSH2 0x67C PUSH2 0xE8F JUMP JUMPDEST JUMPDEST MUL OR SWAP1 SSTORE POP PUSH2 0x6B2 JUMP JUMPDEST PUSH1 0x2 PUSH1 0x0 DUP1 PUSH2 0x100 EXP DUP2 SLOAD DUP2 PUSH1 0xFF MUL NOT AND SWAP1 DUP4 PUSH1 0x2 DUP2 GT ISZERO PUSH2 0x6AC JUMPI PUSH2 0x6AB PUSH2 0xE8F JUMP JUMPDEST JUMPDEST MUL OR SWAP1 SSTORE POP JUMPDEST PUSH32 0x35BB0CD5F89DEF7829CADBFE305076FCA9A4811F847E3CE1CD4E017651DDA4D4 PUSH1 0x0 DUP1 SLOAD SWAP1 PUSH2 0x100 EXP SWAP1 DIV PUSH1 0xFF AND PUSH1 0x40 MLOAD PUSH2 0x6EE SWAP2 SWAP1 PUSH2 0xF06 JUMP JUMPDEST PUSH1 0x40 MLOAD DUP1 SWAP2 SUB SWAP1 LOG1 JUMP JUMPDEST PUSH1 0x5 SLOAD TIMESTAMP GT PUSH2 0x73C JUMPI PUSH1 0x40 MLOAD PUSH32 0x8C379A000000000000000000000000000000000000000000000000000000000 DUP2 MSTORE PUSH1 0x4 ADD PUSH2 0x733 SWAP1 PUSH2 0x1328 JUMP JUMPDEST PUSH1 0x40 MLOAD DUP1 SWAP2 SUB SWAP1 REVERT JUMPDEST PUSH1 0x2 DUP1 DUP2 GT ISZERO PUSH2 0x74F JUMPI PUSH2 0x74E PUSH2 0xE8F JUMP JUMPDEST JUMPDEST PUSH1 0x0 DUP1 SLOAD SWAP1 PUSH2 0x100 EXP SWAP1 DIV PUSH1 0xFF AND PUSH1 0x2 DUP2 GT ISZERO PUSH2 0x76F JUMPI PUSH2 0x76E PUSH2 0xE8F JUMP JUMPDEST JUMPDEST EQ PUSH2 0x7AF JUMPI PUSH1 0x40 MLOAD PUSH32 0x8C379A000000000000000000000000000000000000000000000000000000000 DUP2 MSTORE PUSH1 0x4 ADD PUSH2 0x7A6 SWAP1 PUSH2 0x13BA JUMP JUMPDEST PUSH1 0x40 MLOAD DUP1 SWAP2 SUB SWAP1 REVERT JUMPDEST PUSH1 0x0 PUSH1 0x7 PUSH1 0x0 CALLER PUSH20 0xFFFFFFFFFFFFFFFFFFFFFFFFFFFFFFFFFFFFFFFF AND PUSH20 0xFFFFFFFFFFFFFFFFFFFFFFFFFFFFFFFFFFFFFFFF AND DUP2 MSTORE PUSH1 0x20 ADD SWAP1 DUP2 MSTORE PUSH1 0x20 ADD PUSH1 0x0 KECCAK256 SWAP1 POP PUSH1 0x0 DUP2 PUSH1 0x1 ADD SLOAD GT PUSH2 0x839 JUMPI PUSH1 0x40 MLOAD PUSH32 0x8C379A000000000000000000000000000000000000000000000000000000000 DUP2 MSTORE PUSH1 0x4 ADD PUSH2 0x830 SWAP1 PUSH2 0x144C JUMP JUMPDEST PUSH1 0x40 MLOAD DUP1 SWAP2 SUB SWAP1 REVERT JUMPDEST DUP1 PUSH1 0x0 ADD PUSH1 0x0 SWAP1 SLOAD SWAP1 PUSH2 0x100 EXP SWAP1 DIV PUSH1 0xFF AND ISZERO PUSH2 0x88B JUMPI PUSH1 0x40 MLOAD PUSH32 0x8C379A000000000000000000000000000000000000000000000000000000000 DUP2 MSTORE PUSH1 0x4 ADD PUSH2 0x882 SWAP1 PUSH2 0x14B8 JUMP JUMPDEST PUSH1 0x40 MLOAD DUP1 SWAP2 SUB SWAP1 REVERT JUMPDEST PUSH1 0x0 DUP2 PUSH1 0x1 ADD SLOAD SWAP1 POP PUSH1 0x0 DUP3 PUSH1 0x1 ADD DUP2 SWAP1 SSTORE POP PUSH1 0x1 DUP3 PUSH1 0x0 ADD PUSH1 0x0 PUSH2 0x100 EXP DUP2 SLOAD DUP2 PUSH1 0xFF MUL NOT AND SWAP1 DUP4 ISZERO ISZERO MUL OR SWAP1 SSTORE POP CALLER PUSH20 0xFFFFFFFFFFFFFFFFFFFFFFFFFFFFFFFFFFFFFFFF AND PUSH2 0x8FC DUP3 SWAP1 DUP2 ISZERO MUL SWAP1 PUSH1 0x40 MLOAD PUSH1 0x0 PUSH1 0x40 MLOAD DUP1 DUP4 SUB DUP2 DUP6 DUP9 DUP9 CALL SWAP4 POP POP POP POP ISZERO DUP1 ISZERO PUSH2 0x901 JUMPI RETURNDATASIZE PUSH1 0x0 DUP1 RETURNDATACOPY RETURNDATASIZE PUSH1 0x0 REVERT JUMPDEST POP POP POP JUMP JUMPDEST PUSH1 0x3 DUP1 SLOAD PUSH2 0x913 SWAP1 PUSH2 0xFC1 JUMP JUMPDEST DUP1 PUSH1 0x1F ADD PUSH1 0x20 DUP1 SWAP2 DIV MUL PUSH1 0x20 ADD PUSH1 0x40 MLOAD SWAP1 DUP2 ADD PUSH1 0x40 MSTORE DUP1 SWAP3 SWAP2 SWAP1 DUP2 DUP2 MSTORE PUSH1 0x20 ADD DUP3 DUP1 SLOAD PUSH2 0x93F SWAP1 PUSH2 0xFC1 JUMP JUMPDEST DUP1 ISZERO PUSH2 0x98C JUMPI DUP1 PUSH1 0x1F LT PUSH2 0x961 JUMPI PUSH2 0x100 DUP1 DUP4 SLOAD DIV MUL DUP4 MSTORE SWAP2 PUSH1 0x20 ADD SWAP2 PUSH2 0x98C JUMP JUMPDEST DUP3 ADD SWAP2 SWAP1 PUSH1 0x0 MSTORE PUSH1 0x20 PUSH1 0x0 KECCAK256 SWAP1 JUMPDEST DUP2 SLOAD DUP2 MSTORE SWAP1 PUSH1 0x1 ADD SWAP1 PUSH1 0x20 ADD DUP1 DUP4 GT PUSH2 0x96F JUMPI DUP3 SWAP1 SUB PUSH1 0x1F AND DUP3 ADD SWAP2 JUMPDEST POP POP POP POP POP DUP2 JUMP JUMPDEST PUSH1 0x0 DUP1 SLOAD SWAP1 PUSH2 0x100 EXP SWAP1 DIV PUSH1 0xFF AND DUP2 JUMP JUMPDEST PUSH1 0x7 PUSH1 0x20 MSTORE DUP1 PUSH1 0x0 MSTORE PUSH1 0x40 PUSH1 0x0 KECCAK256 PUSH1 0x0 SWAP2 POP SWAP1 POP DUP1 PUSH1 0x0 ADD PUSH1 0x0 SWAP1 SLOAD SWAP1 PUSH2 0x100 EXP SWAP1 DIV PUSH1 0xFF AND SWAP1 DUP1 PUSH1 0x1 ADD SLOAD SWAP1 POP DUP3 JUMP JUMPDEST CALLVALUE PUSH1 0x6 PUSH1 0x0 DUP3 DUP3 SLOAD PUSH2 0x9E8 SWAP2 SWAP1 PUSH2 0x1507 JUMP JUMPDEST SWAP3 POP POP DUP2 SWAP1 SSTORE POP CALLVALUE PUSH1 0x7 PUSH1 0x0 CALLER PUSH20 0xFFFFFFFFFFFFFFFFFFFFFFFFFFFFFFFFFFFFFFFF AND PUSH20 0xFFFFFFFFFFFFFFFFFFFFFFFFFFFFFFFFFFFFFFFF AND DUP2 MSTORE PUSH1 0x20 ADD SWAP1 DUP2 MSTORE PUSH1 0x20 ADD PUSH1 0x0 KECCAK256 PUSH1 0x1 ADD PUSH1 0x0 DUP3 DUP3 SLOAD PUSH2 0xA41 SWAP2 SWAP1 PUSH2 0x1507 JUMP JUMPDEST SWAP3 POP POP DUP2 SWAP1 SSTORE POP PUSH1 0x0 PUSH1 0x7 PUSH1 0x0 CALLER PUSH20 0xFFFFFFFFFFFFFFFFFFFFFFFFFFFFFFFFFFFFFFFF AND PUSH20 0xFFFFFFFFFFFFFFFFFFFFFFFFFFFFFFFFFFFFFFFF AND DUP2 MSTORE PUSH1 0x20 ADD SWAP1 DUP2 MSTORE PUSH1 0x20 ADD PUSH1 0x0 KECCAK256 PUSH1 0x0 ADD PUSH1 0x0 PUSH2 0x100 EXP DUP2 SLOAD DUP2 PUSH1 0xFF MUL NOT AND SWAP1 DUP4 ISZERO ISZERO MUL OR SWAP1 SSTORE POP CALLER PUSH20 0xFFFFFFFFFFFFFFFFFFFFFFFFFFFFFFFFFFFFFFFF AND PUSH32 0x264F630D9EFA0D07053A31163641D9FCC0ADAFC9D9E76F1C37C2CE3A558D2C52 CALLVALUE PUSH1 0x40 MLOAD PUSH2 0xAE9 SWAP2 SWAP1 PUSH2 0xE74 JUMP JUMPDEST PUSH1 0x40 MLOAD DUP1 SWAP2 SUB SWAP1 LOG2 JUMP JUMPDEST PUSH1 0x6 SLOAD DUP2 JUMP JUMPDEST PUSH1 0x0 PUSH20 0xFFFFFFFFFFFFFFFFFFFFFFFFFFFFFFFFFFFFFFFF DUP3 AND SWAP1 POP SWAP2 SWAP1 POP JUMP JUMPDEST PUSH1 0x0 PUSH2 0xB24 DUP3 PUSH2 0xAF9 JUMP JUMPDEST SWAP1 POP SWAP2 SWAP1 POP JUMP JUMPDEST PUSH2 0xB34 DUP2 PUSH2 0xB19 JUMP JUMPDEST DUP3 MSTORE POP POP JUMP JUMPDEST PUSH1 0x0 PUSH1 0x20 DUP3 ADD SWAP1 POP PUSH2 0xB4F PUSH1 0x0 DUP4 ADD DUP5 PUSH2 0xB2B JUMP JUMPDEST SWAP3 SWAP2 POP POP JUMP JUMPDEST PUSH1 0x0 PUSH1 0x40 MLOAD SWAP1 POP SWAP1 JUMP JUMPDEST PUSH1 0x0 DUP1 REVERT JUMPDEST PUSH1 0x0 DUP1 REVERT JUMPDEST PUSH2 0xB72 DUP2 PUSH2 0xB19 JUMP JUMPDEST DUP2 EQ PUSH2 0xB7D JUMPI PUSH1 0x0 DUP1 REVERT JUMPDEST POP JUMP JUMPDEST PUSH1 0x0 DUP2 CALLDATALOAD SWAP1 POP PUSH2 0xB8F DUP2 PUSH2 0xB69 JUMP JUMPDEST SWAP3 SWAP2 POP POP JUMP JUMPDEST PUSH1 0x0 DUP1 REVERT JUMPDEST PUSH1 0x0 DUP1 REVERT JUMPDEST PUSH1 0x0 PUSH1 0x1F NOT PUSH1 0x1F DUP4 ADD AND SWAP1 POP SWAP2 SWAP1 POP JUMP JUMPDEST PUSH32 0x4E487B7100000000000000000000000000000000000000000000000000000000 PUSH1 0x0 MSTORE PUSH1 0x41 PUSH1 0x4 MSTORE PUSH1 0x24 PUSH1 0x0 REVERT JUMPDEST PUSH2 0xBE8 DUP3 PUSH2 0xB9F JUMP JUMPDEST DUP2 ADD DUP2 DUP2 LT PUSH8 0xFFFFFFFFFFFFFFFF DUP3 GT OR ISZERO PUSH2 0xC07 JUMPI PUSH2 0xC06 PUSH2 0xBB0 JUMP JUMPDEST JUMPDEST DUP1 PUSH1 0x40 MSTORE POP POP POP JUMP JUMPDEST PUSH1 0x0 PUSH2 0xC1A PUSH2 0xB55 JUMP JUMPDEST SWAP1 POP PUSH2 0xC26 DUP3 DUP3 PUSH2 0xBDF JUMP JUMPDEST SWAP2 SWAP1 POP JUMP JUMPDEST PUSH1 0x0 PUSH8 0xFFFFFFFFFFFFFFFF DUP3 GT ISZERO PUSH2 0xC46 JUMPI PUSH2 0xC45 PUSH2 0xBB0 JUMP JUMPDEST JUMPDEST PUSH2 0xC4F DUP3 PUSH2 0xB9F JUMP JUMPDEST SWAP1 POP PUSH1 0x20 DUP2 ADD SWAP1 POP SWAP2 SWAP1 POP JUMP JUMPDEST DUP3 DUP2 DUP4 CALLDATACOPY PUSH1 0x0 DUP4 DUP4 ADD MSTORE POP POP POP JUMP JUMPDEST PUSH1 0x0 PUSH2 0xC7E PUSH2 0xC79 DUP5 PUSH2 0xC2B JUMP JUMPDEST PUSH2 0xC10 JUMP JUMPDEST SWAP1 POP DUP3 DUP2 MSTORE PUSH1 0x20 DUP2 ADD DUP5 DUP5 DUP5 ADD GT ISZERO PUSH2 0xC9A JUMPI PUSH2 0xC99 PUSH2 0xB9A JUMP JUMPDEST JUMPDEST PUSH2 0xCA5 DUP5 DUP3 DUP6 PUSH2 0xC5C JUMP JUMPDEST POP SWAP4 SWAP3 POP POP POP JUMP JUMPDEST PUSH1 0x0 DUP3 PUSH1 0x1F DUP4 ADD SLT PUSH2 0xCC2 JUMPI PUSH2 0xCC1 PUSH2 0xB95 JUMP JUMPDEST JUMPDEST DUP2 CALLDATALOAD PUSH2 0xCD2 DUP5 DUP3 PUSH1 0x20 DUP7 ADD PUSH2 0xC6B JUMP JUMPDEST SWAP2 POP POP SWAP3 SWAP2 POP POP JUMP JUMPDEST PUSH1 0x0 DUP2 SWAP1 POP SWAP2 SWAP1 POP JUMP JUMPDEST PUSH2 0xCEE DUP2 PUSH2 0xCDB JUMP JUMPDEST DUP2 EQ PUSH2 0xCF9 JUMPI PUSH1 0x0 DUP1 REVERT JUMPDEST POP JUMP JUMPDEST PUSH1 0x0 DUP2 CALLDATALOAD SWAP1 POP PUSH2 0xD0B DUP2 PUSH2 0xCE5 JUMP JUMPDEST SWAP3 SWAP2 POP POP JUMP JUMPDEST PUSH1 0x0 DUP1 PUSH1 0x0 DUP1 PUSH1 0x0 PUSH1 0xA0 DUP7 DUP9 SUB SLT ISZERO PUSH2 0xD2D JUMPI PUSH2 0xD2C PUSH2 0xB5F JUMP JUMPDEST JUMPDEST PUSH1 0x0 PUSH2 0xD3B DUP9 DUP3 DUP10 ADD PUSH2 0xB80 JUMP JUMPDEST SWAP6 POP POP PUSH1 0x20 DUP7 ADD CALLDATALOAD PUSH8 0xFFFFFFFFFFFFFFFF DUP2 GT ISZERO PUSH2 0xD5C JUMPI PUSH2 0xD5B PUSH2 0xB64 JUMP JUMPDEST JUMPDEST PUSH2 0xD68 DUP9 DUP3 DUP10 ADD PUSH2 0xCAD JUMP JUMPDEST SWAP5 POP POP PUSH1 0x40 PUSH2 0xD79 DUP9 DUP3 DUP10 ADD PUSH2 0xCFC JUMP JUMPDEST SWAP4 POP POP PUSH1 0x60 PUSH2 0xD8A DUP9 DUP3 DUP10 ADD PUSH2 0xCFC JUMP JUMPDEST SWAP3 POP POP PUSH1 0x80 DUP7 ADD CALLDATALOAD PUSH8 0xFFFFFFFFFFFFFFFF DUP2 GT ISZERO PUSH2 0xDAB JUMPI PUSH2 0xDAA PUSH2 0xB64 JUMP JUMPDEST JUMPDEST PUSH2 0xDB7 DUP9 DUP3 DUP10 ADD PUSH2 0xCAD JUMP JUMPDEST SWAP2 POP POP SWAP3 SWAP6 POP SWAP3 SWAP6 SWAP1 SWAP4 POP JUMP JUMPDEST PUSH1 0x0 DUP2 MLOAD SWAP1 POP SWAP2 SWAP1 POP JUMP JUMPDEST PUSH1 0x0 DUP3 DUP3 MSTORE PUSH1 0x20 DUP3 ADD SWAP1 POP SWAP3 SWAP2 POP POP JUMP JUMPDEST PUSH1 0x0 JUMPDEST DUP4 DUP2 LT ISZERO PUSH2 0xDFE JUMPI DUP1 DUP3 ADD MLOAD DUP2 DUP5 ADD MSTORE PUSH1 0x20 DUP2 ADD SWAP1 POP PUSH2 0xDE3 JUMP JUMPDEST PUSH1 0x0 DUP5 DUP5 ADD MSTORE POP POP POP POP JUMP JUMPDEST PUSH1 0x0 PUSH2 0xE15 DUP3 PUSH2 0xDC4 JUMP JUMPDEST PUSH2 0xE1F DUP2 DUP6 PUSH2 0xDCF JUMP JUMPDEST SWAP4 POP PUSH2 0xE2F DUP2 DUP6 PUSH1 0x20 DUP7 ADD PUSH2 0xDE0 JUMP JUMPDEST PUSH2 0xE38 DUP2 PUSH2 0xB9F JUMP JUMPDEST DUP5 ADD SWAP2 POP POP SWAP3 SWAP2 POP POP JUMP JUMPDEST PUSH1 0x0 PUSH1 0x20 DUP3 ADD SWAP1 POP DUP2 DUP2 SUB PUSH1 0x0 DUP4 ADD MSTORE PUSH2 0xE5D DUP2 DUP5 PUSH2 0xE0A JUMP JUMPDEST SWAP1 POP SWAP3 SWAP2 POP POP JUMP JUMPDEST PUSH2 0xE6E DUP2 PUSH2 0xCDB JUMP JUMPDEST DUP3 MSTORE POP POP JUMP JUMPDEST PUSH1 0x0 PUSH1 0x20 DUP3 ADD SWAP1 POP PUSH2 0xE89 PUSH1 0x0 DUP4 ADD DUP5 PUSH2 0xE65 JUMP JUMPDEST SWAP3 SWAP2 POP POP JUMP JUMPDEST PUSH32 0x4E487B7100000000000000000000000000000000000000000000000000000000 PUSH1 0x0 MSTORE PUSH1 0x21 PUSH1 0x4 MSTORE PUSH1 0x24 PUSH1 0x0 REVERT JUMPDEST PUSH1 0x3 DUP2 LT PUSH2 0xECF JUMPI PUSH2 0xECE PUSH2 0xE8F JUMP JUMPDEST JUMPDEST POP JUMP JUMPDEST PUSH1 0x0 DUP2 SWAP1 POP PUSH2 0xEE0 DUP3 PUSH2 0xEBE JUMP JUMPDEST SWAP2 SWAP1 POP JUMP JUMPDEST PUSH1 0x0 PUSH2 0xEF0 DUP3 PUSH2 0xED2 JUMP JUMPDEST SWAP1 POP SWAP2 SWAP1 POP JUMP JUMPDEST PUSH2 0xF00 DUP2 PUSH2 0xEE5 JUMP JUMPDEST DUP3 MSTORE POP POP JUMP JUMPDEST PUSH1 0x0 PUSH1 0x20 DUP3 ADD SWAP1 POP PUSH2 0xF1B PUSH1 0x0 DUP4 ADD DUP5 PUSH2 0xEF7 JUMP JUMPDEST SWAP3 SWAP2 POP POP JUMP JUMPDEST PUSH1 0x0 PUSH1 0x20 DUP3 DUP5 SUB SLT ISZERO PUSH2 0xF37 JUMPI PUSH2 0xF36 PUSH2 0xB5F JUMP JUMPDEST JUMPDEST PUSH1 0x0 PUSH2 0xF45 DUP5 DUP3 DUP6 ADD PUSH2 0xB80 JUMP JUMPDEST SWAP2 POP POP SWAP3 SWAP2 POP POP JUMP JUMPDEST PUSH1 0x0 DUP2 ISZERO ISZERO SWAP1 POP SWAP2 SWAP1 POP JUMP JUMPDEST PUSH2 0xF63 DUP2 PUSH2 0xF4E JUMP JUMPDEST DUP3 MSTORE POP POP JUMP JUMPDEST PUSH1 0x0 PUSH1 0x40 DUP3 ADD SWAP1 POP PUSH2 0xF7E PUSH1 0x0 DUP4 ADD DUP6 PUSH2 0xF5A JUMP JUMPDEST PUSH2 0xF8B PUSH1 0x20 DUP4 ADD DUP5 PUSH2 0xE65 JUMP JUMPDEST SWAP4 SWAP3 POP POP POP JUMP JUMPDEST PUSH32 0x4E487B7100000000000000000000000000000000000000000000000000000000 PUSH1 0x0 MSTORE PUSH1 0x22 PUSH1 0x4 MSTORE PUSH1 0x24 PUSH1 0x0 REVERT JUMPDEST PUSH1 0x0 PUSH1 0x2 DUP3 DIV SWAP1 POP PUSH1 0x1 DUP3 AND DUP1 PUSH2 0xFD9 JUMPI PUSH1 0x7F DUP3 AND SWAP2 POP JUMPDEST PUSH1 0x20 DUP3 LT DUP2 SUB PUSH2 0xFEC JUMPI PUSH2 0xFEB PUSH2 0xF92 JUMP JUMPDEST JUMPDEST POP SWAP2 SWAP1 POP JUMP JUMPDEST PUSH1 0x0 DUP2 SWAP1 POP DUP2 PUSH1 0x0 MSTORE PUSH1 0x20 PUSH1 0x0 KECCAK256 SWAP1 POP SWAP2 SWAP1 POP JUMP JUMPDEST PUSH1 0x0 PUSH1 0x20 PUSH1 0x1F DUP4 ADD DIV SWAP1 POP SWAP2 SWAP1 POP JUMP JUMPDEST PUSH1 0x0 DUP3 DUP3 SHL SWAP1 POP SWAP3 SWAP2 POP POP JUMP JUMPDEST PUSH1 0x0 PUSH1 0x8 DUP4 MUL PUSH2 0x1054 PUSH32 0xFFFFFFFFFFFFFFFFFFFFFFFFFFFFFFFFFFFFFFFFFFFFFFFFFFFFFFFFFFFFFFFF DUP3 PUSH2 0x1017 JUMP JUMPDEST PUSH2 0x105E DUP7 DUP4 PUSH2 0x1017 JUMP JUMPDEST SWAP6 POP DUP1 NOT DUP5 AND SWAP4 POP DUP1 DUP7 AND DUP5 OR SWAP3 POP POP POP SWAP4 SWAP3 POP POP POP JUMP JUMPDEST PUSH1 0x0 DUP2 SWAP1 POP SWAP2 SWAP1 POP JUMP JUMPDEST PUSH1 0x0 PUSH2 0x109B PUSH2 0x1096 PUSH2 0x1091 DUP5 PUSH2 0xCDB JUMP JUMPDEST PUSH2 0x1076 JUMP JUMPDEST PUSH2 0xCDB JUMP JUMPDEST SWAP1 POP SWAP2 SWAP1 POP JUMP JUMPDEST PUSH1 0x0 DUP2 SWAP1 POP SWAP2 SWAP1 POP JUMP JUMPDEST PUSH2 0x10B5 DUP4 PUSH2 0x1080 JUMP JUMPDEST PUSH2 0x10C9 PUSH2 0x10C1 DUP3 PUSH2 0x10A2 JUMP JUMPDEST DUP5 DUP5 SLOAD PUSH2 0x1024 JUMP JUMPDEST DUP3 SSTORE POP POP POP POP JUMP JUMPDEST PUSH1 0x0 SWAP1 JUMP JUMPDEST PUSH2 0x10DE PUSH2 0x10D1 JUMP JUMPDEST PUSH2 0x10E9 DUP2 DUP5 DUP5 PUSH2 0x10AC JUMP JUMPDEST POP POP POP JUMP JUMPDEST JUMPDEST DUP2 DUP2 LT ISZERO PUSH2 0x110D JUMPI PUSH2 0x1102 PUSH1 0x0 DUP3 PUSH2 0x10D6 JUMP JUMPDEST PUSH1 0x1 DUP2 ADD SWAP1 POP PUSH2 0x10EF JUMP JUMPDEST POP POP JUMP JUMPDEST PUSH1 0x1F DUP3 GT ISZERO PUSH2 0x1152 JUMPI PUSH2 0x1123 DUP2 PUSH2 0xFF2 JUMP JUMPDEST PUSH2 0x112C DUP5 PUSH2 0x1007 JUMP JUMPDEST DUP2 ADD PUSH1 0x20 DUP6 LT ISZERO PUSH2 0x113B JUMPI DUP2 SWAP1 POP JUMPDEST PUSH2 0x114F PUSH2 0x1147 DUP6 PUSH2 0x1007 JUMP JUMPDEST DUP4 ADD DUP3 PUSH2 0x10EE JUMP JUMPDEST POP POP JUMPDEST POP POP POP JUMP JUMPDEST PUSH1 0x0 DUP3 DUP3 SHR SWAP1 POP SWAP3 SWAP2 POP POP JUMP JUMPDEST PUSH1 0x0 PUSH2 0x1175 PUSH1 0x0 NOT DUP5 PUSH1 0x8 MUL PUSH2 0x1157 JUMP JUMPDEST NOT DUP1 DUP4 AND SWAP2 POP POP SWAP3 SWAP2 POP POP JUMP JUMPDEST PUSH1 0x0 PUSH2 0x118E DUP4 DUP4 PUSH2 0x1164 JUMP JUMPDEST SWAP2 POP DUP3 PUSH1 0x2 MUL DUP3 OR SWAP1 POP SWAP3 SWAP2 POP POP JUMP JUMPDEST PUSH2 0x11A7 DUP3 PUSH2 0xDC4 JUMP JUMPDEST PUSH8 0xFFFFFFFFFFFFFFFF DUP2 GT ISZERO PUSH2 0x11C0 JUMPI PUSH2 0x11BF PUSH2 0xBB0 JUMP JUMPDEST JUMPDEST PUSH2 0x11CA DUP3 SLOAD PUSH2 0xFC1 JUMP JUMPDEST PUSH2 0x11D5 DUP3 DUP3 DUP6 PUSH2 0x1111 JUMP JUMPDEST PUSH1 0x0 PUSH1 0x20 SWAP1 POP PUSH1 0x1F DUP4 GT PUSH1 0x1 DUP2 EQ PUSH2 0x1208 JUMPI PUSH1 0x0 DUP5 ISZERO PUSH2 0x11F6 JUMPI DUP3 DUP8 ADD MLOAD SWAP1 POP JUMPDEST PUSH2 0x1200 DUP6 DUP3 PUSH2 0x1182 JUMP JUMPDEST DUP7 SSTORE POP PUSH2 0x1268 JUMP JUMPDEST PUSH1 0x1F NOT DUP5 AND PUSH2 0x1216 DUP7 PUSH2 0xFF2 JUMP JUMPDEST PUSH1 0x0 JUMPDEST DUP3 DUP2 LT ISZERO PUSH2 0x123E JUMPI DUP5 DUP10 ADD MLOAD DUP3 SSTORE PUSH1 0x1 DUP3 ADD SWAP2 POP PUSH1 0x20 DUP6 ADD SWAP5 POP PUSH1 0x20 DUP2 ADD SWAP1 POP PUSH2 0x1219 JUMP JUMPDEST DUP7 DUP4 LT ISZERO PUSH2 0x125B JUMPI DUP5 DUP10 ADD MLOAD PUSH2 0x1257 PUSH1 0x1F DUP10 AND DUP3 PUSH2 0x1164 JUMP JUMPDEST DUP4 SSTORE POP JUMPDEST PUSH1 0x1 PUSH1 0x2 DUP9 MUL ADD DUP9 SSTORE POP POP POP JUMPDEST POP POP POP POP POP POP JUMP JUMPDEST PUSH32 0x4E6F742063726561746F72000000000000000000000000000000000000000000 PUSH1 0x0 DUP3 ADD MSTORE POP JUMP JUMPDEST PUSH1 0x0 PUSH2 0x12A6 PUSH1 0xB DUP4 PUSH2 0xDCF JUMP JUMPDEST SWAP2 POP PUSH2 0x12B1 DUP3 PUSH2 0x1270 JUMP JUMPDEST PUSH1 0x20 DUP3 ADD SWAP1 POP SWAP2 SWAP1 POP JUMP JUMPDEST PUSH1 0x0 PUSH1 0x20 DUP3 ADD SWAP1 POP DUP2 DUP2 SUB PUSH1 0x0 DUP4 ADD MSTORE PUSH2 0x12D5 DUP2 PUSH2 0x1299 JUMP JUMPDEST SWAP1 POP SWAP2 SWAP1 POP JUMP JUMPDEST PUSH32 0x486176656E277420726561636865642074686520646561646C696E6500000000 PUSH1 0x0 DUP3 ADD MSTORE POP JUMP JUMPDEST PUSH1 0x0 PUSH2 0x1312 PUSH1 0x1C DUP4 PUSH2 0xDCF JUMP JUMPDEST SWAP2 POP PUSH2 0x131D DUP3 PUSH2 0x12DC JUMP JUMPDEST PUSH1 0x20 DUP3 ADD SWAP1 POP SWAP2 SWAP1 POP JUMP JUMPDEST PUSH1 0x0 PUSH1 0x20 DUP3 ADD SWAP1 POP DUP2 DUP2 SUB PUSH1 0x0 DUP4 ADD MSTORE PUSH2 0x1341 DUP2 PUSH2 0x1305 JUMP JUMPDEST SWAP1 POP SWAP2 SWAP1 POP JUMP JUMPDEST PUSH32 0x43616E6E6F7420726566756E6420756E6C6573732070726F6A65637420666169 PUSH1 0x0 DUP3 ADD MSTORE PUSH32 0x6C65640000000000000000000000000000000000000000000000000000000000 PUSH1 0x20 DUP3 ADD MSTORE POP JUMP JUMPDEST PUSH1 0x0 PUSH2 0x13A4 PUSH1 0x23 DUP4 PUSH2 0xDCF JUMP JUMPDEST SWAP2 POP PUSH2 0x13AF DUP3 PUSH2 0x1348 JUMP JUMPDEST PUSH1 0x40 DUP3 ADD SWAP1 POP SWAP2 SWAP1 POP JUMP JUMPDEST PUSH1 0x0 PUSH1 0x20 DUP3 ADD SWAP1 POP DUP2 DUP2 SUB PUSH1 0x0 DUP4 ADD MSTORE PUSH2 0x13D3 DUP2 PUSH2 0x1397 JUMP JUMPDEST SWAP1 POP SWAP2 SWAP1 POP JUMP JUMPDEST PUSH32 0x4E6F20646F6E6174696F6E7320666F756E6420666F72207468652073656E6465 PUSH1 0x0 DUP3 ADD MSTORE PUSH32 0x7200000000000000000000000000000000000000000000000000000000000000 PUSH1 0x20 DUP3 ADD MSTORE POP JUMP JUMPDEST PUSH1 0x0 PUSH2 0x1436 PUSH1 0x21 DUP4 PUSH2 0xDCF JUMP JUMPDEST SWAP2 POP PUSH2 0x1441 DUP3 PUSH2 0x13DA JUMP JUMPDEST PUSH1 0x40 DUP3 ADD SWAP1 POP SWAP2 SWAP1 POP JUMP JUMPDEST PUSH1 0x0 PUSH1 0x20 DUP3 ADD SWAP1 POP DUP2 DUP2 SUB PUSH1 0x0 DUP4 ADD MSTORE PUSH2 0x1465 DUP2 PUSH2 0x1429 JUMP JUMPDEST SWAP1 POP SWAP2 SWAP1 POP JUMP JUMPDEST PUSH32 0x446F6E6174696F6E20616C726561647920726566756E64656400000000000000 PUSH1 0x0 DUP3 ADD MSTORE POP JUMP JUMPDEST PUSH1 0x0 PUSH2 0x14A2 PUSH1 0x19 DUP4 PUSH2 0xDCF JUMP JUMPDEST SWAP2 POP PUSH2 0x14AD DUP3 PUSH2 0x146C JUMP JUMPDEST PUSH1 0x20 DUP3 ADD SWAP1 POP SWAP2 SWAP1 POP JUMP JUMPDEST PUSH1 0x0 PUSH1 0x20 DUP3 ADD SWAP1 POP DUP2 DUP2 SUB PUSH1 0x0 DUP4 ADD MSTORE PUSH2 0x14D1 DUP2 PUSH2 0x1495 JUMP JUMPDEST SWAP1 POP SWAP2 SWAP1 POP JUMP JUMPDEST PUSH32 0x4E487B7100000000000000000000000000000000000000000000000000000000 PUSH1 0x0 MSTORE PUSH1 0x11 PUSH1 0x4 MSTORE PUSH1 0x24 PUSH1 0x0 REVERT JUMPDEST PUSH1 0x0 PUSH2 0x1512 DUP3 PUSH2 0xCDB JUMP JUMPDEST SWAP2 POP PUSH2 0x151D DUP4 PUSH2 0xCDB JUMP JUMPDEST SWAP3 POP DUP3 DUP3 ADD SWAP1 POP DUP1 DUP3 GT ISZERO PUSH2 0x1535 JUMPI PUSH2 0x1534 PUSH2 0x14D8 JUMP JUMPDEST JUMPDEST SWAP3 SWAP2 POP POP JUMP INVALID LOG2 PUSH5 0x6970667358 0x22 SLT KECCAK256 DIV PUSH3 0xC2F73C DUP4 0xF6 PUSH7 0xC121F772091011 0x21 TIMESTAMP 0xE7 BALANCE 0x22 0x23 0x2E DIV NOT JUMP SHL PUSH13 0x41782E43D564736F6C63430008 XOR STOP CALLER "
        },
        "methodIdentifiers": {
          "campaignName()": "0724fda9",
          "creator()": "02d05d3f",
          "currentAmount()": "f441b1c8",
          "deadline()": "29dcb0cf",
          "description()": "7284e416",
          "donate()": "ed88c68e",
          "donations(address)": "cc6cb19a",
          "goalAmount()": "2636b945",
          "initialize(address,string,uint256,uint256,string)": "06322998",
          "refund()": "590e1ae3",
          "state()": "c19d93fb",
          "updateProjectState()": "3deb33e7",
          "withdrawFunds()": "24600fc3"
        }
      },
      "storageLayout": {
        "storage": [
          {
            "astId": 1484,
            "contract": "contracts/Project.sol:Project",
            "label": "state",
            "offset": 0,
            "slot": "0",
            "type": "t_enum(ProjectState)1481"
          },
          {
            "astId": 1486,
            "contract": "contracts/Project.sol:Project",
            "label": "campaignName",
            "offset": 0,
            "slot": "1",
            "type": "t_string_storage"
          },
          {
            "astId": 1488,
            "contract": "contracts/Project.sol:Project",
            "label": "creator",
            "offset": 0,
            "slot": "2",
            "type": "t_address"
          },
          {
            "astId": 1490,
            "contract": "contracts/Project.sol:Project",
            "label": "description",
            "offset": 0,
            "slot": "3",
            "type": "t_string_storage"
          },
          {
            "astId": 1492,
            "contract": "contracts/Project.sol:Project",
            "label": "goalAmount",
            "offset": 0,
            "slot": "4",
            "type": "t_uint256"
          },
          {
            "astId": 1494,
            "contract": "contracts/Project.sol:Project",
            "label": "deadline",
            "offset": 0,
            "slot": "5",
            "type": "t_uint256"
          },
          {
            "astId": 1496,
            "contract": "contracts/Project.sol:Project",
            "label": "currentAmount",
            "offset": 0,
            "slot": "6",
            "type": "t_uint256"
          },
          {
            "astId": 1506,
            "contract": "contracts/Project.sol:Project",
            "label": "donations",
            "offset": 0,
            "slot": "7",
            "type": "t_mapping(t_address,t_struct(Donation)1501_storage)"
          }
        ],
        "types": {
          "t_address": {
            "encoding": "inplace",
            "label": "address",
            "numberOfBytes": "20"
          },
          "t_bool": {
            "encoding": "inplace",
            "label": "bool",
            "numberOfBytes": "1"
          },
          "t_enum(ProjectState)1481": {
            "encoding": "inplace",
            "label": "enum Project.ProjectState",
            "numberOfBytes": "1"
          },
          "t_mapping(t_address,t_struct(Donation)1501_storage)": {
            "encoding": "mapping",
            "key": "t_address",
            "label": "mapping(address => struct Project.Donation)",
            "numberOfBytes": "32",
            "value": "t_struct(Donation)1501_storage"
          },
          "t_string_storage": {
            "encoding": "bytes",
            "label": "string",
            "numberOfBytes": "32"
          },
          "t_struct(Donation)1501_storage": {
            "encoding": "inplace",
            "label": "struct Project.Donation",
            "members": [
              {
                "astId": 1498,
                "contract": "contracts/Project.sol:Project",
                "label": "refunded",
                "offset": 0,
                "slot": "0",
                "type": "t_bool"
              },
              {
                "astId": 1500,
                "contract": "contracts/Project.sol:Project",
                "label": "amount",
                "offset": 0,
                "slot": "1",
                "type": "t_uint256"
              }
            ],
            "numberOfBytes": "64"
          },
          "t_uint256": {
            "encoding": "inplace",
            "label": "uint256",
            "numberOfBytes": "32"
          }
        }
      }
    }
  }
}