{
  "_format": "hh-sol-artifact-1",
  "contractName": "CrowdfundingPlatform",
  "sourceName": "contracts/CrowdfundingPlatform.sol",
  "abi": [
    {
      "inputs": [
        {
          "internalType": "address",
          "name": "target",
          "type": "address"
        }
      ],
      "name": "AddressEmptyCode",
      "type": "error"
    },
    {
      "inputs": [
        {
          "internalType": "address",
          "name": "implementation",
          "type": "address"
        }
      ],
      "name": "ERC1967InvalidImplementation",
      "type": "error"
    },
    {
      "inputs": [],
      "name": "ERC1967NonPayable",
      "type": "error"
    },
    {
      "inputs": [],
      "name": "FailedInnerCall",
      "type": "error"
    },
    {
      "inputs": [],
      "name": "InvalidInitialization",
      "type": "error"
    },
    {
      "inputs": [],
      "name": "NotInitializing",
      "type": "error"
    },
    {
      "inputs": [
        {
          "internalType": "address",
          "name": "owner",
          "type": "address"
        }
      ],
      "name": "OwnableInvalidOwner",
      "type": "error"
    },
    {
      "inputs": [
        {
          "internalType": "address",
          "name": "account",
          "type": "address"
        }
      ],
      "name": "OwnableUnauthorizedAccount",
      "type": "error"
    },
    {
      "inputs": [],
      "name": "UUPSUnauthorizedCallContext",
      "type": "error"
    },
    {
      "inputs": [
        {
          "internalType": "bytes32",
          "name": "slot",
          "type": "bytes32"
        }
      ],
      "name": "UUPSUnsupportedProxiableUUID",
      "type": "error"
    },
    {
      "anonymous": false,
      "inputs": [
        {
          "indexed": false,
          "internalType": "uint64",
          "name": "version",
          "type": "uint64"
        }
      ],
      "name": "Initialized",
      "type": "event"
    },
    {
      "anonymous": false,
      "inputs": [
        {
          "indexed": true,
          "internalType": "address",
          "name": "previousOwner",
          "type": "address"
        },
        {
          "indexed": true,
          "internalType": "address",
          "name": "newOwner",
          "type": "address"
        }
      ],
      "name": "OwnershipTransferred",
      "type": "event"
    },
    {
      "anonymous": false,
      "inputs": [
        {
          "indexed": false,
          "internalType": "address",
          "name": "projectAddress",
          "type": "address"
        },
        {
          "indexed": false,
          "internalType": "address",
          "name": "creator",
          "type": "address"
        },
        {
          "indexed": false,
          "internalType": "string",
          "name": "description",
          "type": "string"
        },
        {
          "indexed": false,
          "internalType": "uint256",
          "name": "goalAmount",
          "type": "uint256"
        },
        {
          "indexed": false,
          "internalType": "uint256",
          "name": "deadline",
          "type": "uint256"
        }
      ],
      "name": "ProjectCreated",
      "type": "event"
    },
    {
      "anonymous": false,
      "inputs": [
        {
          "indexed": true,
          "internalType": "address",
          "name": "implementation",
          "type": "address"
        }
      ],
      "name": "Upgraded",
      "type": "event"
    },
    {
      "inputs": [],
      "name": "UPGRADE_INTERFACE_VERSION",
      "outputs": [
        {
          "internalType": "string",
          "name": "",
          "type": "string"
        }
      ],
      "stateMutability": "view",
      "type": "function"
    },
    {
      "inputs": [
        {
          "internalType": "string",
          "name": "_description",
          "type": "string"
        },
        {
          "internalType": "string",
          "name": "_campaignName",
          "type": "string"
        },
        {
          "internalType": "uint256",
          "name": "_goalAmount",
          "type": "uint256"
        },
        {
          "internalType": "uint256",
          "name": "_deadline",
          "type": "uint256"
        }
      ],
      "name": "createProject",
      "outputs": [],
      "stateMutability": "nonpayable",
      "type": "function"
    },
    {
      "inputs": [],
      "name": "getProjects",
      "outputs": [
        {
          "internalType": "address[]",
          "name": "",
          "type": "address[]"
        }
      ],
      "stateMutability": "view",
      "type": "function"
    },
    {
      "inputs": [
        {
          "internalType": "address",
          "name": "initialOwner",
          "type": "address"
        }
      ],
      "name": "initialize",
      "outputs": [],
      "stateMutability": "nonpayable",
      "type": "function"
    },
    {
      "inputs": [],
      "name": "owner",
      "outputs": [
        {
          "internalType": "address",
          "name": "",
          "type": "address"
        }
      ],
      "stateMutability": "view",
      "type": "function"
    },
    {
      "inputs": [
        {
          "internalType": "uint256",
          "name": "",
          "type": "uint256"
        }
      ],
      "name": "projects",
      "outputs": [
        {
          "internalType": "address",
          "name": "",
          "type": "address"
        }
      ],
      "stateMutability": "view",
      "type": "function"
    },
    {
      "inputs": [],
      "name": "proxiableUUID",
      "outputs": [
        {
          "internalType": "bytes32",
          "name": "",
          "type": "bytes32"
        }
      ],
      "stateMutability": "view",
      "type": "function"
    },
    {
      "inputs": [],
      "name": "renounceOwnership",
      "outputs": [],
      "stateMutability": "nonpayable",
      "type": "function"
    },
    {
      "inputs": [
        {
          "internalType": "address",
          "name": "newOwner",
          "type": "address"
        }
      ],
      "name": "transferOwnership",
      "outputs": [],
      "stateMutability": "nonpayable",
      "type": "function"
    },
    {
      "inputs": [
        {
          "internalType": "address",
          "name": "newImplementation",
          "type": "address"
        },
        {
          "internalType": "bytes",
          "name": "data",
          "type": "bytes"
        }
      ],
      "name": "upgradeToAndCall",
      "outputs": [],
      "stateMutability": "payable",
      "type": "function"
    }
  ],
  "bytecode": "0x60a06040523073ffffffffffffffffffffffffffffffffffffffff1660809073ffffffffffffffffffffffffffffffffffffffff1681525034801561004357600080fd5b50608051612d4a61006d600039600081816107390152818161078e01526109490152612d4a6000f3fe6080604052600436106100915760003560e01c806394ba97091161005957806394ba97091461015c578063ad3cb1cc14610185578063c4d66de8146101b0578063dcc60128146101d9578063f2fde38b1461020457610091565b8063107046bd146100965780634f1ef286146100d357806352d1902d146100ef578063715018a61461011a5780638da5cb5b14610131575b600080fd5b3480156100a257600080fd5b506100bd60048036038101906100b89190611015565b61022d565b6040516100ca9190611083565b60405180910390f35b6100ed60048036038101906100e89190611210565b61026c565b005b3480156100fb57600080fd5b5061010461028b565b6040516101119190611285565b60405180910390f35b34801561012657600080fd5b5061012f6102be565b005b34801561013d57600080fd5b506101466102d2565b6040516101539190611083565b60405180910390f35b34801561016857600080fd5b50610183600480360381019061017e9190611341565b61030a565b005b34801561019157600080fd5b5061019a610453565b6040516101a7919061145f565b60405180910390f35b3480156101bc57600080fd5b506101d760048036038101906101d29190611481565b61048c565b005b3480156101e557600080fd5b506101ee610623565b6040516101fb919061156c565b60405180910390f35b34801561021057600080fd5b5061022b60048036038101906102269190611481565b6106b1565b005b6000818154811061023d57600080fd5b906000526020600020016000915054906101000a900473ffffffffffffffffffffffffffffffffffffffff1681565b610274610737565b61027d8261081d565b6102878282610828565b5050565b6000610295610947565b7f360894a13ba1a3210667c828492db98dca3e2076cc3735a920a3ca505d382bbc60001b905090565b6102c66109ce565b6102d06000610a55565b565b6000806102dd610b2c565b90508060000160009054906101000a900473ffffffffffffffffffffffffffffffffffffffff1691505090565b600060405161031890610fbe565b604051809103906000f080158015610334573d6000803e3d6000fd5b5090508073ffffffffffffffffffffffffffffffffffffffff166306322998338686868a6040518663ffffffff1660e01b815260040161037895949392919061159d565b600060405180830381600087803b15801561039257600080fd5b505af11580156103a6573d6000803e3d6000fd5b505050506000819080600181540180825580915050600190039060005260206000200160009091909190916101000a81548173ffffffffffffffffffffffffffffffffffffffff021916908373ffffffffffffffffffffffffffffffffffffffff1602179055507ff474a44bbf67e28a60e1e8977a0d7bdf30896d6b88b7c83710a32ad52761199481338786866040516104449594939291906115fe565b60405180910390a15050505050565b6040518060400160405280600581526020017f352e302e3000000000000000000000000000000000000000000000000000000081525081565b6000610496610b54565b905060008160000160089054906101000a900460ff1615905060008260000160009054906101000a900467ffffffffffffffff1690506000808267ffffffffffffffff161480156104e45750825b9050600060018367ffffffffffffffff16148015610519575060003073ffffffffffffffffffffffffffffffffffffffff163b145b905081158015610527575080155b1561055e576040517ff92ee8a900000000000000000000000000000000000000000000000000000000815260040160405180910390fd5b60018560000160006101000a81548167ffffffffffffffff021916908367ffffffffffffffff16021790555083156105ae5760018560000160086101000a81548160ff0219169083151502179055505b6105b786610b7c565b6105bf610b90565b831561061b5760008560000160086101000a81548160ff0219169083151502179055507fc7f505b2f371ae2175ee4913f4499e1f2633a7b5936321eed1cdaeb6115181d2600160405161061291906116b1565b60405180910390a15b505050505050565b606060008054806020026020016040519081016040528092919081815260200182805480156106a757602002820191906000526020600020905b8160009054906101000a900473ffffffffffffffffffffffffffffffffffffffff1673ffffffffffffffffffffffffffffffffffffffff168152602001906001019080831161065d575b5050505050905090565b6106b96109ce565b600073ffffffffffffffffffffffffffffffffffffffff168173ffffffffffffffffffffffffffffffffffffffff160361072b5760006040517f1e4fbdf70000000000000000000000000000000000000000000000000000000081526004016107229190611083565b60405180910390fd5b61073481610a55565b50565b7f000000000000000000000000000000000000000000000000000000000000000073ffffffffffffffffffffffffffffffffffffffff163073ffffffffffffffffffffffffffffffffffffffff1614806107e457507f000000000000000000000000000000000000000000000000000000000000000073ffffffffffffffffffffffffffffffffffffffff166107cb610b9a565b73ffffffffffffffffffffffffffffffffffffffff1614155b1561081b576040517fe07c8dba00000000000000000000000000000000000000000000000000000000815260040160405180910390fd5b565b6108256109ce565b50565b8173ffffffffffffffffffffffffffffffffffffffff166352d1902d6040518163ffffffff1660e01b8152600401602060405180830381865afa92505050801561089057506040513d601f19601f8201168201806040525081019061088d91906116f8565b60015b6108d157816040517f4c9c8ce30000000000000000000000000000000000000000000000000000000081526004016108c89190611083565b60405180910390fd5b7f360894a13ba1a3210667c828492db98dca3e2076cc3735a920a3ca505d382bbc60001b811461093857806040517faa1d49a400000000000000000000000000000000000000000000000000000000815260040161092f9190611285565b60405180910390fd5b6109428383610bf1565b505050565b7f000000000000000000000000000000000000000000000000000000000000000073ffffffffffffffffffffffffffffffffffffffff163073ffffffffffffffffffffffffffffffffffffffff16146109cc576040517fe07c8dba00000000000000000000000000000000000000000000000000000000815260040160405180910390fd5b565b6109d6610c64565b73ffffffffffffffffffffffffffffffffffffffff166109f46102d2565b73ffffffffffffffffffffffffffffffffffffffff1614610a5357610a17610c64565b6040517f118cdaa7000000000000000000000000000000000000000000000000000000008152600401610a4a9190611083565b60405180910390fd5b565b6000610a5f610b2c565b905060008160000160009054906101000a900473ffffffffffffffffffffffffffffffffffffffff169050828260000160006101000a81548173ffffffffffffffffffffffffffffffffffffffff021916908373ffffffffffffffffffffffffffffffffffffffff1602179055508273ffffffffffffffffffffffffffffffffffffffff168173ffffffffffffffffffffffffffffffffffffffff167f8be0079c531659141344cd1fd0a4f28419497f9722a3daafe3b4186f6b6457e060405160405180910390a3505050565b60007f9016d09d72d40fdae2fd8ceac6b6234c7706214fd39c1cd1e609a0528c199300905090565b60007ff0c57e16840df040f15088dc2f81fe391c3923bec73e23a9662efc9c229c6a00905090565b610b84610c6c565b610b8d81610cac565b50565b610b98610c6c565b565b6000610bc87f360894a13ba1a3210667c828492db98dca3e2076cc3735a920a3ca505d382bbc60001b610d32565b60000160009054906101000a900473ffffffffffffffffffffffffffffffffffffffff16905090565b610bfa82610d3c565b8173ffffffffffffffffffffffffffffffffffffffff167fbc7cd75a20ee27fd9adebab32041f755214dbc6bffa90cc0225b39da2e5c2d3b60405160405180910390a2600081511115610c5757610c518282610e09565b50610c60565b610c5f610e8d565b5b5050565b600033905090565b610c74610eca565b610caa576040517fd7e6bcf800000000000000000000000000000000000000000000000000000000815260040160405180910390fd5b565b610cb4610c6c565b600073ffffffffffffffffffffffffffffffffffffffff168173ffffffffffffffffffffffffffffffffffffffff1603610d265760006040517f1e4fbdf7000000000000000000000000000000000000000000000000000000008152600401610d1d9190611083565b60405180910390fd5b610d2f81610a55565b50565b6000819050919050565b60008173ffffffffffffffffffffffffffffffffffffffff163b03610d9857806040517f4c9c8ce3000000000000000000000000000000000000000000000000000000008152600401610d8f9190611083565b60405180910390fd5b80610dc57f360894a13ba1a3210667c828492db98dca3e2076cc3735a920a3ca505d382bbc60001b610d32565b60000160006101000a81548173ffffffffffffffffffffffffffffffffffffffff021916908373ffffffffffffffffffffffffffffffffffffffff16021790555050565b60606000808473ffffffffffffffffffffffffffffffffffffffff1684604051610e33919061176c565b600060405180830381855af49150503d8060008114610e6e576040519150601f19603f3d011682016040523d82523d6000602084013e610e73565b606091505b5091509150610e83858383610eea565b9250505092915050565b6000341115610ec8576040517fb398979f00000000000000000000000000000000000000000000000000000000815260040160405180910390fd5b565b6000610ed4610b54565b60000160089054906101000a900460ff16905090565b606082610eff57610efa82610f79565b610f71565b60008251148015610f27575060008473ffffffffffffffffffffffffffffffffffffffff163b145b15610f6957836040517f9996b315000000000000000000000000000000000000000000000000000000008152600401610f609190611083565b60405180910390fd5b819050610f72565b5b9392505050565b600081511115610f8c5780518082602001fd5b6040517f1425ea4200000000000000000000000000000000000000000000000000000000815260040160405180910390fd5b6115918061178483390190565b6000604051905090565b600080fd5b600080fd5b6000819050919050565b610ff281610fdf565b8114610ffd57600080fd5b50565b60008135905061100f81610fe9565b92915050565b60006020828403121561102b5761102a610fd5565b5b600061103984828501611000565b91505092915050565b600073ffffffffffffffffffffffffffffffffffffffff82169050919050565b600061106d82611042565b9050919050565b61107d81611062565b82525050565b60006020820190506110986000830184611074565b92915050565b6110a781611062565b81146110b257600080fd5b50565b6000813590506110c48161109e565b92915050565b600080fd5b600080fd5b6000601f19601f8301169050919050565b7f4e487b7100000000000000000000000000000000000000000000000000000000600052604160045260246000fd5b61111d826110d4565b810181811067ffffffffffffffff8211171561113c5761113b6110e5565b5b80604052505050565b600061114f610fcb565b905061115b8282611114565b919050565b600067ffffffffffffffff82111561117b5761117a6110e5565b5b611184826110d4565b9050602081019050919050565b82818337600083830152505050565b60006111b36111ae84611160565b611145565b9050828152602081018484840111156111cf576111ce6110cf565b5b6111da848285611191565b509392505050565b600082601f8301126111f7576111f66110ca565b5b81356112078482602086016111a0565b91505092915050565b6000806040838503121561122757611226610fd5565b5b6000611235858286016110b5565b925050602083013567ffffffffffffffff81111561125657611255610fda565b5b611262858286016111e2565b9150509250929050565b6000819050919050565b61127f8161126c565b82525050565b600060208201905061129a6000830184611276565b92915050565b600067ffffffffffffffff8211156112bb576112ba6110e5565b5b6112c4826110d4565b9050602081019050919050565b60006112e46112df846112a0565b611145565b905082815260208101848484011115611300576112ff6110cf565b5b61130b848285611191565b509392505050565b600082601f830112611328576113276110ca565b5b81356113388482602086016112d1565b91505092915050565b6000806000806080858703121561135b5761135a610fd5565b5b600085013567ffffffffffffffff81111561137957611378610fda565b5b61138587828801611313565b945050602085013567ffffffffffffffff8111156113a6576113a5610fda565b5b6113b287828801611313565b93505060406113c387828801611000565b92505060606113d487828801611000565b91505092959194509250565b600081519050919050565b600082825260208201905092915050565b60005b8381101561141a5780820151818401526020810190506113ff565b60008484015250505050565b6000611431826113e0565b61143b81856113eb565b935061144b8185602086016113fc565b611454816110d4565b840191505092915050565b600060208201905081810360008301526114798184611426565b905092915050565b60006020828403121561149757611496610fd5565b5b60006114a5848285016110b5565b91505092915050565b600081519050919050565b600082825260208201905092915050565b6000819050602082019050919050565b6114e381611062565b82525050565b60006114f583836114da565b60208301905092915050565b6000602082019050919050565b6000611519826114ae565b61152381856114b9565b935061152e836114ca565b8060005b8381101561155f57815161154688826114e9565b975061155183611501565b925050600181019050611532565b5085935050505092915050565b60006020820190508181036000830152611586818461150e565b905092915050565b61159781610fdf565b82525050565b600060a0820190506115b26000830188611074565b81810360208301526115c48187611426565b90506115d3604083018661158e565b6115e0606083018561158e565b81810360808301526115f28184611426565b90509695505050505050565b600060a0820190506116136000830188611074565b6116206020830187611074565b81810360408301526116328186611426565b9050611641606083018561158e565b61164e608083018461158e565b9695505050505050565b6000819050919050565b600067ffffffffffffffff82169050919050565b6000819050919050565b600061169b61169661169184611658565b611676565b611662565b9050919050565b6116ab81611680565b82525050565b60006020820190506116c660008301846116a2565b92915050565b6116d58161126c565b81146116e057600080fd5b50565b6000815190506116f2816116cc565b92915050565b60006020828403121561170e5761170d610fd5565b5b600061171c848285016116e3565b91505092915050565b600081519050919050565b600081905092915050565b600061174682611725565b6117508185611730565b93506117608185602086016113fc565b80840191505092915050565b6000611778828461173b565b91508190509291505056fe608060405234801561001057600080fd5b50611571806100206000396000f3fe6080604052600436106100c25760003560e01c80633deb33e71161007f578063c19d93fb11610059578063c19d93fb1461020c578063cc6cb19a14610237578063ed88c68e14610275578063f441b1c81461027f576100c2565b80633deb33e7146101b3578063590e1ae3146101ca5780637284e416146101e1576100c2565b806302d05d3f146100c757806306322998146100f25780630724fda91461011b57806324600fc3146101465780632636b9451461015d57806329dcb0cf14610188575b600080fd5b3480156100d357600080fd5b506100dc6102aa565b6040516100e99190610b3a565b60405180910390f35b3480156100fe57600080fd5b5061011960048036038101906101149190610d11565b6102d0565b005b34801561012757600080fd5b50610130610378565b60405161013d9190610e43565b60405180910390f35b34801561015257600080fd5b5061015b610406565b005b34801561016957600080fd5b506101726105fd565b60405161017f9190610e74565b60405180910390f35b34801561019457600080fd5b5061019d610603565b6040516101aa9190610e74565b60405180910390f35b3480156101bf57600080fd5b506101c8610609565b005b3480156101d657600080fd5b506101df6106f8565b005b3480156101ed57600080fd5b506101f6610906565b6040516102039190610e43565b60405180910390f35b34801561021857600080fd5b50610221610994565b60405161022e9190610f06565b60405180910390f35b34801561024357600080fd5b5061025e60048036038101906102599190610f21565b6109a5565b60405161026c929190610f69565b60405180910390f35b61027d6109d6565b005b34801561028b57600080fd5b50610294610af3565b6040516102a19190610e74565b60405180910390f35b600260009054906101000a900473ffffffffffffffffffffffffffffffffffffffff1681565b84600260006101000a81548173ffffffffffffffffffffffffffffffffffffffff021916908373ffffffffffffffffffffffffffffffffffffffff1602179055508360019081610320919061119e565b508260048190555081600581905550806003908161033e919061119e565b50600060068190555060008060006101000a81548160ff0219169083600281111561036c5761036b610e8f565b5b02179055505050505050565b6001805461038590610fc1565b80601f01602080910402602001604051908101604052809291908181526020018280546103b190610fc1565b80156103fe5780601f106103d3576101008083540402835291602001916103fe565b820191906000526020600020905b8154815290600101906020018083116103e157829003601f168201915b505050505081565b600260009054906101000a900473ffffffffffffffffffffffffffffffffffffffff1673ffffffffffffffffffffffffffffffffffffffff163373ffffffffffffffffffffffffffffffffffffffff1614610496576040517f08c379a000000000000000000000000000000000000000000000000000000000815260040161048d906112bc565b60405180910390fd5b60055442116104da576040517f08c379a00000000000000000000000000000000000000000000000000000000081526004016104d190611328565b60405180910390fd5b600160028111156104ee576104ed610e8f565b5b60008054906101000a900460ff16600281111561050e5761050d610e8f565b5b1461051857600080fd5b6000600260009054906101000a900473ffffffffffffffffffffffffffffffffffffffff1690508073ffffffffffffffffffffffffffffffffffffffff166108fc6006549081150290604051600060405180830381858888f19350505050158015610587573d6000803e3d6000fd5b50600260009054906101000a900473ffffffffffffffffffffffffffffffffffffffff1673ffffffffffffffffffffffffffffffffffffffff167feaff4b37086828766ad3268786972c0cd24259d4c87a80f9d3963a3c3d999b0d6006546040516105f29190610e74565b60405180910390a250565b60045481565b60055481565b600554421161064d576040517f08c379a000000000000000000000000000000000000000000000000000000000815260040161064490611328565b60405180910390fd5b600454600654106106875760016000806101000a81548160ff0219169083600281111561067d5761067c610e8f565b5b02179055506106b2565b60026000806101000a81548160ff021916908360028111156106ac576106ab610e8f565b5b02179055505b7f35bb0cd5f89def7829cadbfe305076fca9a4811f847e3ce1cd4e017651dda4d460008054906101000a900460ff166040516106ee9190610f06565b60405180910390a1565b600554421161073c576040517f08c379a000000000000000000000000000000000000000000000000000000000815260040161073390611328565b60405180910390fd5b60028081111561074f5761074e610e8f565b5b60008054906101000a900460ff16600281111561076f5761076e610e8f565b5b146107af576040517f08c379a00000000000000000000000000000000000000000000000000000000081526004016107a6906113ba565b60405180910390fd5b6000600760003373ffffffffffffffffffffffffffffffffffffffff1673ffffffffffffffffffffffffffffffffffffffff16815260200190815260200160002090506000816001015411610839576040517f08c379a00000000000000000000000000000000000000000000000000000000081526004016108309061144c565b60405180910390fd5b8060000160009054906101000a900460ff161561088b576040517f08c379a0000000000000000000000000000000000000000000000000000000008152600401610882906114b8565b60405180910390fd5b6000816001015490506000826001018190555060018260000160006101000a81548160ff0219169083151502179055503373ffffffffffffffffffffffffffffffffffffffff166108fc829081150290604051600060405180830381858888f19350505050158015610901573d6000803e3d6000fd5b505050565b6003805461091390610fc1565b80601f016020809104026020016040519081016040528092919081815260200182805461093f90610fc1565b801561098c5780601f106109615761010080835404028352916020019161098c565b820191906000526020600020905b81548152906001019060200180831161096f57829003601f168201915b505050505081565b60008054906101000a900460ff1681565b60076020528060005260406000206000915090508060000160009054906101000a900460ff16908060010154905082565b34600660008282546109e89190611507565b9250508190555034600760003373ffffffffffffffffffffffffffffffffffffffff1673ffffffffffffffffffffffffffffffffffffffff1681526020019081526020016000206001016000828254610a419190611507565b925050819055506000600760003373ffffffffffffffffffffffffffffffffffffffff1673ffffffffffffffffffffffffffffffffffffffff16815260200190815260200160002060000160006101000a81548160ff0219169083151502179055503373ffffffffffffffffffffffffffffffffffffffff167f264f630d9efa0d07053a31163641d9fcc0adafc9d9e76f1c37c2ce3a558d2c5234604051610ae99190610e74565b60405180910390a2565b60065481565b600073ffffffffffffffffffffffffffffffffffffffff82169050919050565b6000610b2482610af9565b9050919050565b610b3481610b19565b82525050565b6000602082019050610b4f6000830184610b2b565b92915050565b6000604051905090565b600080fd5b600080fd5b610b7281610b19565b8114610b7d57600080fd5b50565b600081359050610b8f81610b69565b92915050565b600080fd5b600080fd5b6000601f19601f8301169050919050565b7f4e487b7100000000000000000000000000000000000000000000000000000000600052604160045260246000fd5b610be882610b9f565b810181811067ffffffffffffffff82111715610c0757610c06610bb0565b5b80604052505050565b6000610c1a610b55565b9050610c268282610bdf565b919050565b600067ffffffffffffffff821115610c4657610c45610bb0565b5b610c4f82610b9f565b9050602081019050919050565b82818337600083830152505050565b6000610c7e610c7984610c2b565b610c10565b905082815260208101848484011115610c9a57610c99610b9a565b5b610ca5848285610c5c565b509392505050565b600082601f830112610cc257610cc1610b95565b5b8135610cd2848260208601610c6b565b91505092915050565b6000819050919050565b610cee81610cdb565b8114610cf957600080fd5b50565b600081359050610d0b81610ce5565b92915050565b600080600080600060a08688031215610d2d57610d2c610b5f565b5b6000610d3b88828901610b80565b955050602086013567ffffffffffffffff811115610d5c57610d5b610b64565b5b610d6888828901610cad565b9450506040610d7988828901610cfc565b9350506060610d8a88828901610cfc565b925050608086013567ffffffffffffffff811115610dab57610daa610b64565b5b610db788828901610cad565b9150509295509295909350565b600081519050919050565b600082825260208201905092915050565b60005b83811015610dfe578082015181840152602081019050610de3565b60008484015250505050565b6000610e1582610dc4565b610e1f8185610dcf565b9350610e2f818560208601610de0565b610e3881610b9f565b840191505092915050565b60006020820190508181036000830152610e5d8184610e0a565b905092915050565b610e6e81610cdb565b82525050565b6000602082019050610e896000830184610e65565b92915050565b7f4e487b7100000000000000000000000000000000000000000000000000000000600052602160045260246000fd5b60038110610ecf57610ece610e8f565b5b50565b6000819050610ee082610ebe565b919050565b6000610ef082610ed2565b9050919050565b610f0081610ee5565b82525050565b6000602082019050610f1b6000830184610ef7565b92915050565b600060208284031215610f3757610f36610b5f565b5b6000610f4584828501610b80565b91505092915050565b60008115159050919050565b610f6381610f4e565b82525050565b6000604082019050610f7e6000830185610f5a565b610f8b6020830184610e65565b9392505050565b7f4e487b7100000000000000000000000000000000000000000000000000000000600052602260045260246000fd5b60006002820490506001821680610fd957607f821691505b602082108103610fec57610feb610f92565b5b50919050565b60008190508160005260206000209050919050565b60006020601f8301049050919050565b600082821b905092915050565b6000600883026110547fffffffffffffffffffffffffffffffffffffffffffffffffffffffffffffffff82611017565b61105e8683611017565b95508019841693508086168417925050509392505050565b6000819050919050565b600061109b61109661109184610cdb565b611076565b610cdb565b9050919050565b6000819050919050565b6110b583611080565b6110c96110c1826110a2565b848454611024565b825550505050565b600090565b6110de6110d1565b6110e98184846110ac565b505050565b5b8181101561110d576111026000826110d6565b6001810190506110ef565b5050565b601f8211156111525761112381610ff2565b61112c84611007565b8101602085101561113b578190505b61114f61114785611007565b8301826110ee565b50505b505050565b600082821c905092915050565b600061117560001984600802611157565b1980831691505092915050565b600061118e8383611164565b9150826002028217905092915050565b6111a782610dc4565b67ffffffffffffffff8111156111c0576111bf610bb0565b5b6111ca8254610fc1565b6111d5828285611111565b600060209050601f83116001811461120857600084156111f6578287015190505b6112008582611182565b865550611268565b601f19841661121686610ff2565b60005b8281101561123e57848901518255600182019150602085019450602081019050611219565b8683101561125b5784890151611257601f891682611164565b8355505b6001600288020188555050505b505050505050565b7f4e6f742063726561746f72000000000000000000000000000000000000000000600082015250565b60006112a6600b83610dcf565b91506112b182611270565b602082019050919050565b600060208201905081810360008301526112d581611299565b9050919050565b7f486176656e277420726561636865642074686520646561646c696e6500000000600082015250565b6000611312601c83610dcf565b915061131d826112dc565b602082019050919050565b6000602082019050818103600083015261134181611305565b9050919050565b7f43616e6e6f7420726566756e6420756e6c6573732070726f6a6563742066616960008201527f6c65640000000000000000000000000000000000000000000000000000000000602082015250565b60006113a4602383610dcf565b91506113af82611348565b604082019050919050565b600060208201905081810360008301526113d381611397565b9050919050565b7f4e6f20646f6e6174696f6e7320666f756e6420666f72207468652073656e646560008201527f7200000000000000000000000000000000000000000000000000000000000000602082015250565b6000611436602183610dcf565b9150611441826113da565b604082019050919050565b6000602082019050818103600083015261146581611429565b9050919050565b7f446f6e6174696f6e20616c726561647920726566756e64656400000000000000600082015250565b60006114a2601983610dcf565b91506114ad8261146c565b602082019050919050565b600060208201905081810360008301526114d181611495565b9050919050565b7f4e487b7100000000000000000000000000000000000000000000000000000000600052601160045260246000fd5b600061151282610cdb565b915061151d83610cdb565b9250828201905080821115611535576115346114d8565b5b9291505056fea26469706673582212200462c2f73c83f666c121f7720910112142e73122232e0419561b6c41782e43d564736f6c63430008180033a264697066735822122019b2040ba129fbebb97268d554369bf8624127ff3415a5b76283eb067389436e64736f6c63430008180033",
  "linkReferences": {},
  "deployedLinkReferences": {}
}